{
  "_format": "hh3-artifact-1",
  "contractName": "AgriChain",
  "sourceName": "contracts/AgriChain.sol",
  "abi": [
    {
      "anonymous": false,
      "inputs": [
        {
          "indexed": true,
          "internalType": "string",
          "name": "batch_code",
          "type": "string"
        },
        {
          "indexed": true,
          "internalType": "address",
          "name": "owner",
          "type": "address"
        },
        {
          "indexed": false,
          "internalType": "uint256",
          "name": "timestamp",
          "type": "uint256"
        }
      ],
      "name": "GhiNhatKyMoi",
      "type": "event"
    },
    {
      "inputs": [
        {
          "internalType": "uint256",
          "name": "",
          "type": "uint256"
        }
      ],
      "name": "danhSachNhatKy",
      "outputs": [
        {
          "internalType": "string",
          "name": "batch_code",
          "type": "string"
        },
        {
          "internalType": "string",
          "name": "product_type",
          "type": "string"
        },
        {
          "internalType": "string",
          "name": "action",
          "type": "string"
        },
        {
          "internalType": "string",
          "name": "details",
          "type": "string"
        },
        {
          "internalType": "uint256",
          "name": "timestamp",
          "type": "uint256"
        },
        {
          "internalType": "address",
          "name": "owner",
          "type": "address"
        }
      ],
      "stateMutability": "view",
      "type": "function"
    },
    {
      "inputs": [],
      "name": "laySoLuong",
      "outputs": [
        {
          "internalType": "uint256",
          "name": "",
          "type": "uint256"
        }
      ],
      "stateMutability": "view",
      "type": "function"
    },
    {
      "inputs": [
        {
          "internalType": "uint256",
          "name": "_index",
          "type": "uint256"
        }
      ],
      "name": "layThongTin",
      "outputs": [
        {
          "internalType": "string",
          "name": "",
          "type": "string"
        },
        {
          "internalType": "string",
          "name": "",
          "type": "string"
        },
        {
          "internalType": "string",
          "name": "",
          "type": "string"
        },
        {
          "internalType": "string",
          "name": "",
          "type": "string"
        },
        {
          "internalType": "uint256",
          "name": "",
          "type": "uint256"
        },
        {
          "internalType": "address",
          "name": "",
          "type": "address"
        }
      ],
      "stateMutability": "view",
      "type": "function"
    },
    {
      "inputs": [
        {
          "internalType": "string",
          "name": "_batch_code",
          "type": "string"
        },
        {
          "internalType": "string",
          "name": "_product_type",
          "type": "string"
        },
        {
          "internalType": "string",
          "name": "_action",
          "type": "string"
        },
        {
          "internalType": "string",
          "name": "_details",
          "type": "string"
        }
      ],
      "name": "themNhatKy",
      "outputs": [],
      "stateMutability": "nonpayable",
      "type": "function"
    }
  ],
  "bytecode": "0x6080604052348015600e575f5ffd5b50610ab88061001c5f395ff3fe608060405234801561000f575f5ffd5b506004361061004a575f3560e01c80631965e8241461004e5780632b7ef47d146100635780636be0de6914610088578063ee16e27b1461009b575b5f5ffd5b5f546040519081526020015b60405180910390f35b61007661007136600461070c565b6100b0565b60405161005a96959493929190610751565b61007661009636600461070c565b610318565b6100ae6100a9366004610860565b6105da565b005b5f81815481106100be575f80fd5b905f5260205f2090600602015f91509050805f0180546100dd90610919565b80601f016020809104026020016040519081016040528092919081815260200182805461010990610919565b80156101545780601f1061012b57610100808354040283529160200191610154565b820191905f5260205f20905b81548152906001019060200180831161013757829003601f168201915b50505050509080600101805461016990610919565b80601f016020809104026020016040519081016040528092919081815260200182805461019590610919565b80156101e05780601f106101b7576101008083540402835291602001916101e0565b820191905f5260205f20905b8154815290600101906020018083116101c357829003601f168201915b5050505050908060020180546101f590610919565b80601f016020809104026020016040519081016040528092919081815260200182805461022190610919565b801561026c5780601f106102435761010080835404028352916020019161026c565b820191905f5260205f20905b81548152906001019060200180831161024f57829003601f168201915b50505050509080600301805461028190610919565b80601f01602080910402602001604051908101604052809291908181526020018280546102ad90610919565b80156102f85780601f106102cf576101008083540402835291602001916102f8565b820191905f5260205f20905b8154815290600101906020018083116102db57829003601f168201915b5050505060048301546005909301549192916001600160a01b0316905086565b6060806060805f5f5f5f888154811061033357610333610951565b905f5260205f2090600602016040518060c00160405290815f8201805461035990610919565b80601f016020809104026020016040519081016040528092919081815260200182805461038590610919565b80156103d05780601f106103a7576101008083540402835291602001916103d0565b820191905f5260205f20905b8154815290600101906020018083116103b357829003601f168201915b505050505081526020016001820180546103e990610919565b80601f016020809104026020016040519081016040528092919081815260200182805461041590610919565b80156104605780601f1061043757610100808354040283529160200191610460565b820191905f5260205f20905b81548152906001019060200180831161044357829003601f168201915b5050505050815260200160028201805461047990610919565b80601f01602080910402602001604051908101604052809291908181526020018280546104a590610919565b80156104f05780601f106104c7576101008083540402835291602001916104f0565b820191905f5260205f20905b8154815290600101906020018083116104d357829003601f168201915b5050505050815260200160038201805461050990610919565b80601f016020809104026020016040519081016040528092919081815260200182805461053590610919565b80156105805780601f1061055757610100808354040283529160200191610580565b820191905f5260205f20905b81548152906001019060200180831161056357829003601f168201915b505050918352505060048201546020808301919091526005909201546001600160a01b0316604091820152825191830151908301516060840151608085015160a090950151939d929c50909a509850919650945092505050565b6040805160c08101825285815260208101859052908101839052606081018290524260808201523360a08201525f8054600181018255908052815182916006027f290decd9548b62a8d60345a988386fc84ba6bc95484008f6362f93160ef3e5630190819061064990826109b1565b506020820151600182019061065e90826109b1565b506040820151600282019061067390826109b1565b506060820151600382019061068890826109b1565b506080820151600482015560a090910151600590910180546001600160a01b0319166001600160a01b0390921691909117905560405133906106cb908790610a6c565b604051908190038120428252907f7fb13b594114e03fee8315320c10f38f1b7bdc3bda852074253172be87cef55d9060200160405180910390a35050505050565b5f6020828403121561071c575f5ffd5b5035919050565b5f81518084528060208401602086015e5f602082860101526020601f19601f83011685010191505092915050565b60c081525f61076360c0830189610723565b82810360208401526107758189610723565b905082810360408401526107898188610723565b9050828103606084015261079d8187610723565b608084019590955250506001600160a01b039190911660a090910152949350505050565b634e487b7160e01b5f52604160045260245ffd5b5f82601f8301126107e4575f5ffd5b813567ffffffffffffffff8111156107fe576107fe6107c1565b604051601f8201601f19908116603f0116810167ffffffffffffffff8111828210171561082d5761082d6107c1565b604052818152838201602001851015610844575f5ffd5b816020850160208301375f918101602001919091529392505050565b5f5f5f5f60808587031215610873575f5ffd5b843567ffffffffffffffff811115610889575f5ffd5b610895878288016107d5565b945050602085013567ffffffffffffffff8111156108b1575f5ffd5b6108bd878288016107d5565b935050604085013567ffffffffffffffff8111156108d9575f5ffd5b6108e5878288016107d5565b925050606085013567ffffffffffffffff811115610901575f5ffd5b61090d878288016107d5565b91505092959194509250565b600181811c9082168061092d57607f821691505b60208210810361094b57634e487b7160e01b5f52602260045260245ffd5b50919050565b634e487b7160e01b5f52603260045260245ffd5b601f8211156109ac57805f5260205f20601f840160051c8101602085101561098a5750805b601f840160051c820191505b818110156109a9575f8155600101610996565b50505b505050565b815167ffffffffffffffff8111156109cb576109cb6107c1565b6109df816109d98454610919565b84610965565b6020601f821160018114610a11575f83156109fa5750848201515b5f19600385901b1c1916600184901b1784556109a9565b5f84815260208120601f198516915b82811015610a405787850151825560209485019460019092019101610a20565b5084821015610a5d57868401515f19600387901b60f8161c191681555b50505050600190811b01905550565b5f82518060208501845e5f92019182525091905056fea26469706673582212209650bcab323aeae547354991b1a54ebdef022e34a6e143a8ba6f0b13b49148fd64736f6c634300081c0033",
  "linkReferences": {},
  "deployedLinkReferences": {},
  "immutableReferences": {},
  "inputSourceName": "project/contracts/AgriChain.sol",
  "buildInfoId": "solc-0_8_28-eb49e53149f24e9dd511c9fe5ff569771a723dd5"
}